{"abi":[{"type":"constructor","inputs":[{"name":"_initialHash","type":"string","internalType":"string"}],"stateMutability":"nonpayable"},{"type":"function","name":"modelHash","inputs":[],"outputs":[{"name":"","type":"string","internalType":"string"}],"stateMutability":"view"},{"type":"function","name":"owner","inputs":[],"outputs":[{"name":"","type":"address","internalType":"address"}],"stateMutability":"view"},{"type":"function","name":"updateModelHash","inputs":[{"name":"_hash","type":"string","internalType":"string"}],"outputs":[],"stateMutability":"nonpayable"},{"type":"event","name":"ModelHashUpdated","inputs":[{"name":"oldHash","type":"string","indexed":false,"internalType":"string"},{"name":"newHash","type":"string","indexed":false,"internalType":"string"},{"name":"timestamp","type":"uint256","indexed":false,"internalType":"uint256"}],"anonymous":false}],"bytecode":{"object":"0x608060405234801561000f575f80fd5b506040516108eb3803806108eb83398101604081905261002e916100ba565b5f8151116100825760405162461bcd60e51b815260206004820152601c60248201527f496e697469616c20686173682063616e6e6f7420626520656d70747900000000604482015260640160405180910390fd5b5f61008d82826101ee565b5050600180546001600160a01b031916331790556102a8565b634e487b7160e01b5f52604160045260245ffd5b5f602082840312156100ca575f80fd5b81516001600160401b038111156100df575f80fd5b8201601f810184136100ef575f80fd5b80516001600160401b03811115610108576101086100a6565b604051601f8201601f19908116603f011681016001600160401b0381118282101715610136576101366100a6565b60405281815282820160200186101561014d575f80fd5b8160208401602083015e5f91810160200191909152949350505050565b600181811c9082168061017e57607f821691505b60208210810361019c57634e487b7160e01b5f52602260045260245ffd5b50919050565b601f8211156101e957805f5260205f20601f840160051c810160208510156101c75750805b601f840160051c820191505b818110156101e6575f81556001016101d3565b50505b505050565b81516001600160401b03811115610207576102076100a6565b61021b81610215845461016a565b846101a2565b6020601f82116001811461024d575f83156102365750848201515b5f19600385901b1c1916600184901b1784556101e6565b5f84815260208120601f198516915b8281101561027c578785015182556020948501946001909201910161025c565b508482101561029957868401515f19600387901b60f8161c191681555b50505050600190811b01905550565b610636806102b55f395ff3fe608060405234801561000f575f80fd5b506004361061003f575f3560e01c80631378d409146100435780631b2ccc09146100585780638da5cb5b14610076575b5f80fd5b610056610051366004610321565b6100a1565b005b610060610282565b60405161006d9190610402565b60405180910390f35b600154610089906001600160a01b031681565b6040516001600160a01b03909116815260200161006d565b6001546001600160a01b031633146101005760405162461bcd60e51b815260206004820152601e60248201527f4f6e6c79206f776e65722063616e20757064617465207468652068617368000060448201526064015b60405180910390fd5b5f8151116101475760405162461bcd60e51b8152602060048201526014602482015273486173682063616e6e6f7420626520656d70747960601b60448201526064016100f7565b5f6040516101559190610453565b60405180910390208180519060200120036101a95760405162461bcd60e51b815260206004820152601460248201527312185cda081a185cc81b9bdd0818da185b99d95960621b60448201526064016100f7565b5f8080546101b69061041b565b80601f01602080910402602001604051908101604052809291908181526020018280546101e29061041b565b801561022d5780601f106102045761010080835404028352916020019161022d565b820191905f5260205f20905b81548152906001019060200180831161021057829003601f168201915b50505050509050815f90816102429190610510565b507fcecdf42ff1114b4ee10e82f575d619d1a7ed1c9a5ca8e8fee2c4ea39b39737a6818342604051610276939291906105cb565b60405180910390a15050565b5f805461028e9061041b565b80601f01602080910402602001604051908101604052809291908181526020018280546102ba9061041b565b80156103055780601f106102dc57610100808354040283529160200191610305565b820191905f5260205f20905b8154815290600101906020018083116102e857829003601f168201915b505050505081565b634e487b7160e01b5f52604160045260245ffd5b5f60208284031215610331575f80fd5b813567ffffffffffffffff811115610347575f80fd5b8201601f81018413610357575f80fd5b803567ffffffffffffffff8111156103715761037161030d565b604051601f8201601f19908116603f0116810167ffffffffffffffff811182821017156103a0576103a061030d565b6040528181528282016020018610156103b7575f80fd5b816020840160208301375f91810160200191909152949350505050565b5f81518084528060208401602086015e5f602082860101526020601f19601f83011685010191505092915050565b602081525f61041460208301846103d4565b9392505050565b600181811c9082168061042f57607f821691505b60208210810361044d57634e487b7160e01b5f52602260045260245ffd5b50919050565b5f8083546104608161041b565b600182168015610477576001811461048c576104b9565b60ff19831686528115158202860193506104b9565b865f5260205f205f5b838110156104b157815488820152600190910190602001610495565b505081860193505b509195945050505050565b601f82111561050b57805f5260205f20601f840160051c810160208510156104e95750805b601f840160051c820191505b81811015610508575f81556001016104f5565b50505b505050565b815167ffffffffffffffff81111561052a5761052a61030d565b61053e81610538845461041b565b846104c4565b6020601f821160018114610570575f83156105595750848201515b5f19600385901b1c1916600184901b178455610508565b5f84815260208120601f198516915b8281101561059f578785015182556020948501946001909201910161057f565b50848210156105bc57868401515f19600387901b60f8161c191681555b50505050600190811b01905550565b606081525f6105dd60608301866103d4565b82810360208401526105ef81866103d4565b91505082604083015294935050505056fea26469706673582212202a2b19ed5dd8640c28acbbe0c9a8964ae0b033d696d6d99f03cb5e905f43755464736f6c634300081a0033","linkReferences":{}},"methodIdentifiers":{"modelHash()":"1b2ccc09","owner()":"8da5cb5b","updateModelHash(string)":"1378d409"},"id":20}